:040000009AEF1FF064
:103F340000019DEF1FF0000E926E948282B203D0B6
:103F4400000E806EFBD7BE0E806E820E016EDE0EFA
:103F5400E82EFED7012EFCD7A00E806E820E016ED5
:103F6400DE0EE82EFED7012EFCD7760E806E820E72
:103F7400016EDE0EE82EFED7012EFCD7F20E806E07
:103F8400820E016EDE0EE82EFED7012EFCD7E80E5F
:103F9400806E820E016EDE0EE82EFED7012EFCD757
:103FA400DA0E806E820E016EDE0EE82EFED7012E32
:103FB400FCD7DE0E806E820E016EDE0EE82EFED77A
:103FC400012EFCD7B00E806E820E016EDE0EE82E3E
:103FD400FED7012EFCD7FE0E806E820E016EDE0E21
:103FE400E82EFED7012EFCD7FA0E806E820E016EEB
:0C3FF400DE0EE82EFED7012EFCD7A0D771
:020000040020DA
:08000000FFFFFFFFFFFFFFFF00
:020000040030CA
:0E000000FF080D3E3C1D85FF0FC00FE00F40B6
:00000001FF
